{
  "contractName": "GeoBache",
  "abi": [
    {
      "constant": true,
      "inputs": [
        {
          "internalType": "uint256",
          "name": "",
          "type": "uint256"
        }
      ],
      "name": "caches",
      "outputs": [
        {
          "internalType": "uint24",
          "name": "lat",
          "type": "uint24"
        },
        {
          "internalType": "uint24",
          "name": "long",
          "type": "uint24"
        }
      ],
      "payable": false,
      "stateMutability": "view",
      "type": "function"
    },
    {
      "constant": true,
      "inputs": [],
      "name": "owner",
      "outputs": [
        {
          "internalType": "address",
          "name": "",
          "type": "address"
        }
      ],
      "payable": false,
      "stateMutability": "view",
      "type": "function"
    },
    {
      "constant": false,
      "inputs": [
        {
          "internalType": "uint24",
          "name": "lat",
          "type": "uint24"
        },
        {
          "internalType": "uint24",
          "name": "long",
          "type": "uint24"
        }
      ],
      "name": "register",
      "outputs": [
        {
          "internalType": "bool",
          "name": "",
          "type": "bool"
        }
      ],
      "payable": false,
      "stateMutability": "nonpayable",
      "type": "function"
    },
    {
      "constant": true,
      "inputs": [
        {
          "internalType": "uint256",
          "name": "index",
          "type": "uint256"
        }
      ],
      "name": "lookUp",
      "outputs": [
        {
          "components": [
            {
              "internalType": "uint24",
              "name": "lat",
              "type": "uint24"
            },
            {
              "internalType": "uint24",
              "name": "long",
              "type": "uint24"
            }
          ],
          "internalType": "struct GeoBache.Coords",
          "name": "coordinates",
          "type": "tuple"
        }
      ],
      "payable": false,
      "stateMutability": "view",
      "type": "function"
    },
    {
      "constant": true,
      "inputs": [
        {
          "internalType": "uint256",
          "name": "index",
          "type": "uint256"
        },
        {
          "internalType": "uint24",
          "name": "lat",
          "type": "uint24"
        },
        {
          "internalType": "uint24",
          "name": "long",
          "type": "uint24"
        }
      ],
      "name": "checkLocation",
      "outputs": [
        {
          "internalType": "bool",
          "name": "",
          "type": "bool"
        }
      ],
      "payable": false,
      "stateMutability": "view",
      "type": "function"
    }
  ],
  "bytecode": "0x6080604052336000806101000a81548173ffffffffffffffffffffffffffffffffffffffff021916908373ffffffffffffffffffffffffffffffffffffffff16021790555034801561005057600080fd5b50610863806100606000396000f3fe608060405234801561001057600080fd5b50600436106100575760003560e01c806317a4282b1461005c5780631b1a6d151461008d578063576cbb91146100bd5780638da5cb5b146100ed578063eedf60101461010b575b600080fd5b610076600480360361007191908101906105a7565b61013b565b604051610084929190610761565b60405180910390f35b6100a760048036036100a291908101906105d0565b61017d565b6040516100b4919061070b565b60405180910390f35b6100d760048036036100d2919081019061056b565b610254565b6040516100e4919061070b565b60405180910390f35b6100f56103f6565b60405161010291906106f0565b60405180910390f35b610125600480360361012091908101906105a7565b61041b565b6040516101329190610746565b60405180910390f35b60016020528060005260406000206000915090508060000160009054906101000a900462ffffff16908060000160039054906101000a900462ffffff16905082565b6000806001600086815260200190815260200160002060000160009054906101000a900462ffffff16905060006001600087815260200190815260200160002060000160039054906101000a900462ffffff1690506001820362ffffff168562ffffff16101580156101fc57506001820162ffffff168562ffffff1611155b15610246576001810362ffffff168462ffffff161015801561022b57506001810162ffffff168462ffffff1611155b1561023b5760019250505061024d565b60009250505061024d565b6000925050505b9392505050565b60008060009054906101000a900473ffffffffffffffffffffffffffffffffffffffff1673ffffffffffffffffffffffffffffffffffffffff163373ffffffffffffffffffffffffffffffffffffffff16146102e5576040517f08c379a00000000000000000000000000000000000000000000000000000000081526004016102dc90610726565b60405180910390fd5b6102ed61051d565b60405180604001604052808562ffffff1681526020018462ffffff16815250905060028190806001815401808255809150509060018203906000526020600020016000909192909190915060008201518160000160006101000a81548162ffffff021916908362ffffff16021790555060208201518160000160036101000a81548162ffffff021916908362ffffff1602179055505050508060016000600280549050815260200190815260200160002060008201518160000160006101000a81548162ffffff021916908362ffffff16021790555060208201518160000160036101000a81548162ffffff021916908362ffffff160217905550905050600191505092915050565b6000809054906101000a900473ffffffffffffffffffffffffffffffffffffffff1681565b61042361051d565b6000809054906101000a900473ffffffffffffffffffffffffffffffffffffffff1673ffffffffffffffffffffffffffffffffffffffff163373ffffffffffffffffffffffffffffffffffffffff16146104b2576040517f08c379a00000000000000000000000000000000000000000000000000000000081526004016104a990610726565b60405180910390fd5b600160008381526020019081526020016000206040518060400160405290816000820160009054906101000a900462ffffff1662ffffff1662ffffff1681526020016000820160039054906101000a900462ffffff1662ffffff1662ffffff16815250509050919050565b6040518060400160405280600062ffffff168152602001600062ffffff1681525090565b600081359050610550816107f2565b92915050565b60008135905061056581610809565b92915050565b6000806040838503121561057e57600080fd5b600061058c85828601610541565b925050602061059d85828601610541565b9150509250929050565b6000602082840312156105b957600080fd5b60006105c784828501610556565b91505092915050565b6000806000606084860312156105e557600080fd5b60006105f386828701610556565b935050602061060486828701610541565b925050604061061586828701610541565b9150509250925092565b6106288161079b565b82525050565b610637816107ad565b82525050565b600061064a60338361078a565b91507f546869732066756e6374696f6e206973207265737472696374656420746f207460008301527f686520636f6e74726163742773206f776e6572000000000000000000000000006020830152604082019050919050565b6040820160008201516106b960008501826106d2565b5060208201516106cc60208501826106d2565b50505050565b6106db816107d9565b82525050565b6106ea816107d9565b82525050565b6000602082019050610705600083018461061f565b92915050565b6000602082019050610720600083018461062e565b92915050565b6000602082019050818103600083015261073f8161063d565b9050919050565b600060408201905061075b60008301846106a3565b92915050565b600060408201905061077660008301856106e1565b61078360208301846106e1565b9392505050565b600082825260208201905092915050565b60006107a6826107b9565b9050919050565b60008115159050919050565b600073ffffffffffffffffffffffffffffffffffffffff82169050919050565b600062ffffff82169050919050565b6000819050919050565b6107fb816107d9565b811461080657600080fd5b50565b610812816107e8565b811461081d57600080fd5b5056fea365627a7a72315820e6f518ce292977338b350610bd2105e7eed43d972e12f71e722cf45776c2e6c56c6578706572696d656e74616cf564736f6c63430005100040",
  "source": "// SPDX-License-Identifier: MIT\npragma solidity >=0.4.22 <0.8.0;\npragma experimental ABIEncoderV2;\n\ncontract GeoBache {\n  address public owner = msg.sender;\n  struct Coords {\n      uint24 lat;\n      uint24 long;\n  }\n  mapping(uint => Coords) public caches;\n  Coords[] coordinateList;\n\n  modifier restricted() {\n    require(\n      msg.sender == owner,\n      \"This function is restricted to the contract's owner\"\n    );\n    _;\n  }\n\n  function register(uint24 lat, uint24 long) public restricted returns(bool) {\n    Coords memory newCoords = Coords(lat, long);\n    coordinateList.push(newCoords);\n    caches[coordinateList.length] = newCoords;\n    return true;\n  }\n\n  function lookUp(uint index) public view restricted returns(Coords memory coordinates) {\n    return caches[index];\n  }\n\n  function checkLocation(uint index, uint24 lat, uint24 long) public view returns(bool) {\n    uint24 _lat = caches[index].lat;\n    uint24 _long = caches[index].long;\n    if(lat >= _lat - 1 && lat <= _lat + 1) {\n        if(long >= _long - 1 && long <= _long + 1) {\n            return true;\n        } else {\n            return false;\n        }\n    } else {\n        return false;\n    }\n  }\n}\n",
  "sourcePath": "/home/user/sandbox/geobache/contracts/GeoBache.sol",
  "compiler": {
    "name": "solc",
    "version": "0.5.16+commit.9c3226ce.Emscripten.clang"
  },
  "schemaVersion": "3.2.0",
  "updatedAt": "2020-10-24T13:40:46.490Z",
  "networkType": "ethereum",
  "devdoc": {
    "methods": {}
  },
  "userdoc": {
    "methods": {}
  }
}