{
  "contractName": "GeoBache",
  "abi": [
    {
      "anonymous": false,
      "inputs": [
        {
          "indexed": false,
          "internalType": "uint256",
          "name": "index",
          "type": "uint256"
        }
      ],
      "name": "Cache",
      "type": "event"
    },
    {
      "constant": true,
      "inputs": [
        {
          "internalType": "uint256",
          "name": "",
          "type": "uint256"
        }
      ],
      "name": "caches",
      "outputs": [
        {
          "internalType": "uint24",
          "name": "lat",
          "type": "uint24"
        },
        {
          "internalType": "uint24",
          "name": "long",
          "type": "uint24"
        }
      ],
      "payable": false,
      "stateMutability": "view",
      "type": "function"
    },
    {
      "constant": true,
      "inputs": [],
      "name": "owner",
      "outputs": [
        {
          "internalType": "address",
          "name": "",
          "type": "address"
        }
      ],
      "payable": false,
      "stateMutability": "view",
      "type": "function"
    },
    {
      "constant": false,
      "inputs": [
        {
          "internalType": "uint24",
          "name": "lat",
          "type": "uint24"
        },
        {
          "internalType": "uint24",
          "name": "long",
          "type": "uint24"
        }
      ],
      "name": "register",
      "outputs": [
        {
          "internalType": "uint256",
          "name": "",
          "type": "uint256"
        }
      ],
      "payable": false,
      "stateMutability": "nonpayable",
      "type": "function"
    },
    {
      "constant": true,
      "inputs": [
        {
          "internalType": "uint256",
          "name": "index",
          "type": "uint256"
        }
      ],
      "name": "lookUp",
      "outputs": [
        {
          "components": [
            {
              "internalType": "uint24",
              "name": "lat",
              "type": "uint24"
            },
            {
              "internalType": "uint24",
              "name": "long",
              "type": "uint24"
            }
          ],
          "internalType": "struct GeoBache.Coords",
          "name": "coordinates",
          "type": "tuple"
        }
      ],
      "payable": false,
      "stateMutability": "view",
      "type": "function"
    },
    {
      "constant": true,
      "inputs": [
        {
          "internalType": "uint256",
          "name": "index",
          "type": "uint256"
        },
        {
          "internalType": "uint24",
          "name": "lat",
          "type": "uint24"
        },
        {
          "internalType": "uint24",
          "name": "long",
          "type": "uint24"
        }
      ],
      "name": "checkLocation",
      "outputs": [
        {
          "internalType": "bool",
          "name": "",
          "type": "bool"
        }
      ],
      "payable": false,
      "stateMutability": "view",
      "type": "function"
    }
  ],
  "bytecode": "0x6080604052336000806101000a81548173ffffffffffffffffffffffffffffffffffffffff021916908373ffffffffffffffffffffffffffffffffffffffff16021790555034801561005057600080fd5b506108cd806100606000396000f3fe608060405234801561001057600080fd5b50600436106100575760003560e01c806317a4282b1461005c5780631b1a6d151461008d578063576cbb91146100bd5780638da5cb5b146100ed578063eedf60101461010b575b600080fd5b610076600480360361007191908101906105e7565b61013b565b6040516100849291906107b0565b60405180910390f35b6100a760048036036100a29190810190610610565b61017d565b6040516100b4919061075a565b60405180910390f35b6100d760048036036100d291908101906105ab565b610254565b6040516100e491906107d9565b60405180910390f35b6100f5610436565b604051610102919061073f565b60405180910390f35b610125600480360361012091908101906105e7565b61045b565b6040516101329190610795565b60405180910390f35b60016020528060005260406000206000915090508060000160009054906101000a900462ffffff16908060000160039054906101000a900462ffffff16905082565b6000806001600086815260200190815260200160002060000160009054906101000a900462ffffff16905060006001600087815260200190815260200160002060000160039054906101000a900462ffffff1690506001820362ffffff168562ffffff16101580156101fc57506001820162ffffff168562ffffff1611155b15610246576001810362ffffff168462ffffff161015801561022b57506001810162ffffff168462ffffff1611155b1561023b5760019250505061024d565b60009250505061024d565b6000925050505b9392505050565b60008060009054906101000a900473ffffffffffffffffffffffffffffffffffffffff1673ffffffffffffffffffffffffffffffffffffffff163373ffffffffffffffffffffffffffffffffffffffff16146102e5576040517f08c379a00000000000000000000000000000000000000000000000000000000081526004016102dc90610775565b60405180910390fd5b6102ed61055d565b60405180604001604052808562ffffff1681526020018462ffffff16815250905060028190806001815401808255809150509060018203906000526020600020016000909192909190915060008201518160000160006101000a81548162ffffff021916908362ffffff16021790555060208201518160000160036101000a81548162ffffff021916908362ffffff1602179055505050508060016000600280549050815260200190815260200160002060008201518160000160006101000a81548162ffffff021916908362ffffff16021790555060208201518160000160036101000a81548162ffffff021916908362ffffff1602179055509050507f57f554cff0eff29edaa58ca723a07f7fc0554ebb8ba9edd7497f254a7d8f515a60028054905060405161041f91906107d9565b60405180910390a160028054905091505092915050565b6000809054906101000a900473ffffffffffffffffffffffffffffffffffffffff1681565b61046361055d565b6000809054906101000a900473ffffffffffffffffffffffffffffffffffffffff1673ffffffffffffffffffffffffffffffffffffffff163373ffffffffffffffffffffffffffffffffffffffff16146104f2576040517f08c379a00000000000000000000000000000000000000000000000000000000081526004016104e990610775565b60405180910390fd5b600160008381526020019081526020016000206040518060400160405290816000820160009054906101000a900462ffffff1662ffffff1662ffffff1681526020016000820160039054906101000a900462ffffff1662ffffff1662ffffff16815250509050919050565b6040518060400160405280600062ffffff168152602001600062ffffff1681525090565b6000813590506105908161085c565b92915050565b6000813590506105a581610873565b92915050565b600080604083850312156105be57600080fd5b60006105cc85828601610581565b92505060206105dd85828601610581565b9150509250929050565b6000602082840312156105f957600080fd5b600061060784828501610596565b91505092915050565b60008060006060848603121561062557600080fd5b600061063386828701610596565b935050602061064486828701610581565b925050604061065586828701610581565b9150509250925092565b61066881610805565b82525050565b61067781610817565b82525050565b600061068a6033836107f4565b91507f546869732066756e6374696f6e206973207265737472696374656420746f207460008301527f686520636f6e74726163742773206f776e6572000000000000000000000000006020830152604082019050919050565b6040820160008201516106f96000850182610712565b50602082015161070c6020850182610712565b50505050565b61071b81610843565b82525050565b61072a81610843565b82525050565b61073981610852565b82525050565b6000602082019050610754600083018461065f565b92915050565b600060208201905061076f600083018461066e565b92915050565b6000602082019050818103600083015261078e8161067d565b9050919050565b60006040820190506107aa60008301846106e3565b92915050565b60006040820190506107c56000830185610721565b6107d26020830184610721565b9392505050565b60006020820190506107ee6000830184610730565b92915050565b600082825260208201905092915050565b600061081082610823565b9050919050565b60008115159050919050565b600073ffffffffffffffffffffffffffffffffffffffff82169050919050565b600062ffffff82169050919050565b6000819050919050565b61086581610843565b811461087057600080fd5b50565b61087c81610852565b811461088757600080fd5b5056fea365627a7a723158204228dc67727a7bb6f47d3e4c1434eca6ff79789467a80e695c4b8ce5618a5bfd6c6578706572696d656e74616cf564736f6c63430005100040",
  "source": "// SPDX-License-Identifier: MIT\npragma solidity >=0.4.22 <0.8.0;\npragma experimental ABIEncoderV2;\n\ncontract GeoBache {\n  address public owner = msg.sender;\n  struct Coords {\n      uint24 lat;\n      uint24 long;\n  }\n  mapping(uint => Coords) public caches;\n  Coords[] coordinateList;\n  event Cache(\n    uint index\n  );\n\n  modifier restricted() {\n    require(\n      msg.sender == owner,\n      \"This function is restricted to the contract's owner\"\n    );\n    _;\n  }\n\n  function register(uint24 lat, uint24 long) public restricted returns(uint) {\n    Coords memory newCoords = Coords(lat, long);\n    coordinateList.push(newCoords);\n    caches[coordinateList.length] = newCoords;\n    emit Cache(coordinateList.length);\n    return coordinateList.length;\n  }\n\n  function lookUp(uint index) public view restricted returns(Coords memory coordinates) {\n    return caches[index];\n  }\n\n  function checkLocation(uint index, uint24 lat, uint24 long) public view returns(bool) {\n    uint24 _lat = caches[index].lat;\n    uint24 _long = caches[index].long;\n    if(lat >= _lat - 1 && lat <= _lat + 1) {\n        if(long >= _long - 1 && long <= _long + 1) {\n            return true;\n        } else {\n            return false;\n        }\n    } else {\n        return false;\n    }\n  }\n}\n",
  "sourcePath": "/home/user/sandbox/geobache/contracts/GeoBache.sol",
  "compiler": {
    "name": "solc",
    "version": "0.5.16+commit.9c3226ce.Emscripten.clang"
  },
  "schemaVersion": "3.2.0",
  "updatedAt": "2020-10-24T19:43:23.426Z",
  "networkType": "ethereum",
  "devdoc": {
    "methods": {}
  },
  "userdoc": {
    "methods": {}
  }
}