{
  "contractName": "GeoBache",
  "abi": [
    {
      "constant": true,
      "inputs": [
        {
          "internalType": "uint256",
          "name": "",
          "type": "uint256"
        }
      ],
      "name": "caches",
      "outputs": [
        {
          "internalType": "uint32",
          "name": "lat",
          "type": "uint32"
        },
        {
          "internalType": "uint32",
          "name": "long",
          "type": "uint32"
        }
      ],
      "payable": false,
      "stateMutability": "view",
      "type": "function"
    },
    {
      "constant": true,
      "inputs": [],
      "name": "owner",
      "outputs": [
        {
          "internalType": "address",
          "name": "",
          "type": "address"
        }
      ],
      "payable": false,
      "stateMutability": "view",
      "type": "function"
    },
    {
      "constant": false,
      "inputs": [
        {
          "internalType": "uint32",
          "name": "lat",
          "type": "uint32"
        },
        {
          "internalType": "uint32",
          "name": "long",
          "type": "uint32"
        }
      ],
      "name": "register",
      "outputs": [
        {
          "internalType": "bool",
          "name": "",
          "type": "bool"
        }
      ],
      "payable": false,
      "stateMutability": "nonpayable",
      "type": "function"
    },
    {
      "constant": true,
      "inputs": [
        {
          "internalType": "uint256",
          "name": "index",
          "type": "uint256"
        }
      ],
      "name": "lookUp",
      "outputs": [
        {
          "components": [
            {
              "internalType": "uint32",
              "name": "lat",
              "type": "uint32"
            },
            {
              "internalType": "uint32",
              "name": "long",
              "type": "uint32"
            }
          ],
          "internalType": "struct GeoBache.Coords",
          "name": "coordinates",
          "type": "tuple"
        }
      ],
      "payable": false,
      "stateMutability": "view",
      "type": "function"
    },
    {
      "constant": true,
      "inputs": [
        {
          "internalType": "uint256",
          "name": "index",
          "type": "uint256"
        },
        {
          "internalType": "uint32",
          "name": "lat",
          "type": "uint32"
        },
        {
          "internalType": "uint32",
          "name": "long",
          "type": "uint32"
        }
      ],
      "name": "checkLocation",
      "outputs": [
        {
          "internalType": "bool",
          "name": "",
          "type": "bool"
        }
      ],
      "payable": false,
      "stateMutability": "view",
      "type": "function"
    }
  ],
  "bytecode": "0x6080604052336000806101000a81548173ffffffffffffffffffffffffffffffffffffffff021916908373ffffffffffffffffffffffffffffffffffffffff16021790555034801561005057600080fd5b50610882806100606000396000f3fe608060405234801561001057600080fd5b50600436106100575760003560e01c806317a4282b1461005c578063434c540f1461008d5780636be54629146100bd5780638da5cb5b146100ed578063eedf60101461010b575b600080fd5b61007660048036036100719190810190610589565b61013b565b60405161008492919061077f565b60405180910390f35b6100a760048036036100a291908101906105b2565b61017f565b6040516100b49190610729565b60405180910390f35b6100d760048036036100d29190810190610601565b610260565b6040516100e49190610729565b60405180910390f35b6100f561040c565b604051610102919061070e565b60405180910390f35b61012560048036036101209190810190610589565b610431565b6040516101329190610764565b60405180910390f35b60016020528060005260406000206000915090508060000160009054906101000a900463ffffffff16908060000160049054906101000a900463ffffffff16905082565b6000806001600086815260200190815260200160002060000160009054906101000a900463ffffffff16905060006001600087815260200190815260200160002060000160049054906101000a900463ffffffff1690506001820363ffffffff168563ffffffff161015801561020457506001820163ffffffff168563ffffffff1611155b15610252576001810363ffffffff168463ffffffff161015801561023757506001810163ffffffff168463ffffffff1611155b1561024757600192505050610259565b600092505050610259565b6000925050505b9392505050565b60008060009054906101000a900473ffffffffffffffffffffffffffffffffffffffff1673ffffffffffffffffffffffffffffffffffffffff163373ffffffffffffffffffffffffffffffffffffffff16146102f1576040517f08c379a00000000000000000000000000000000000000000000000000000000081526004016102e890610744565b60405180910390fd5b6102f9610539565b60405180604001604052808563ffffffff1681526020018463ffffffff16815250905060028190806001815401808255809150509060018203906000526020600020016000909192909190915060008201518160000160006101000a81548163ffffffff021916908363ffffffff16021790555060208201518160000160046101000a81548163ffffffff021916908363ffffffff1602179055505050508060016000600280549050815260200190815260200160002060008201518160000160006101000a81548163ffffffff021916908363ffffffff16021790555060208201518160000160046101000a81548163ffffffff021916908363ffffffff160217905550905050600191505092915050565b6000809054906101000a900473ffffffffffffffffffffffffffffffffffffffff1681565b610439610539565b6000809054906101000a900473ffffffffffffffffffffffffffffffffffffffff1673ffffffffffffffffffffffffffffffffffffffff163373ffffffffffffffffffffffffffffffffffffffff16146104c8576040517f08c379a00000000000000000000000000000000000000000000000000000000081526004016104bf90610744565b60405180910390fd5b600160008381526020019081526020016000206040518060400160405290816000820160009054906101000a900463ffffffff1663ffffffff1663ffffffff1681526020016000820160049054906101000a900463ffffffff1663ffffffff1663ffffffff16815250509050919050565b6040518060400160405280600063ffffffff168152602001600063ffffffff1681525090565b60008135905061056e81610811565b92915050565b60008135905061058381610828565b92915050565b60006020828403121561059b57600080fd5b60006105a98482850161055f565b91505092915050565b6000806000606084860312156105c757600080fd5b60006105d58682870161055f565b93505060206105e686828701610574565b92505060406105f786828701610574565b9150509250925092565b6000806040838503121561061457600080fd5b600061062285828601610574565b925050602061063385828601610574565b9150509250929050565b610646816107b9565b82525050565b610655816107cb565b82525050565b60006106686033836107a8565b91507f546869732066756e6374696f6e206973207265737472696374656420746f207460008301527f686520636f6e74726163742773206f776e6572000000000000000000000000006020830152604082019050919050565b6040820160008201516106d760008501826106f0565b5060208201516106ea60208501826106f0565b50505050565b6106f981610801565b82525050565b61070881610801565b82525050565b6000602082019050610723600083018461063d565b92915050565b600060208201905061073e600083018461064c565b92915050565b6000602082019050818103600083015261075d8161065b565b9050919050565b600060408201905061077960008301846106c1565b92915050565b600060408201905061079460008301856106ff565b6107a160208301846106ff565b9392505050565b600082825260208201905092915050565b60006107c4826107d7565b9050919050565b60008115159050919050565b600073ffffffffffffffffffffffffffffffffffffffff82169050919050565b6000819050919050565b600063ffffffff82169050919050565b61081a816107f7565b811461082557600080fd5b50565b61083181610801565b811461083c57600080fd5b5056fea365627a7a72315820214af96eea861dddd0e9363015aeabcfc66c4e67fd4be8895d184c23becb31d46c6578706572696d656e74616cf564736f6c63430005100040",
  "source": "// SPDX-License-Identifier: MIT\npragma solidity >=0.4.22 <0.8.0;\npragma experimental ABIEncoderV2;\n\ncontract GeoBache {\n  address public owner = msg.sender;\n  struct Coords {\n      uint32 lat;\n      uint32 long;\n  }\n  mapping(uint => Coords) public caches;\n  Coords[] coordinateList;\n\n  modifier restricted() {\n    require(\n      msg.sender == owner,\n      \"This function is restricted to the contract's owner\"\n    );\n    _;\n  }\n\n  function register(uint32 lat, uint32 long) public restricted returns(bool) {\n    Coords memory newCoords = Coords(lat, long);\n    coordinateList.push(newCoords);\n    caches[coordinateList.length] = newCoords;\n    return true;\n  }\n\n  function lookUp(uint index) public view restricted returns(Coords memory coordinates) {\n    return caches[index];\n  }\n\n  function checkLocation(uint index, uint32 lat, uint32 long) public view returns(bool) {\n    uint32 _lat = caches[index].lat;\n    uint32 _long = caches[index].long;\n    if(lat >= _lat - 1 && lat <= _lat + 1) {\n        if(long >= _long - 1 && long <= _long + 1) {\n            return true;\n        } else {\n            return false;\n        }\n    } else {\n        return false;\n    }\n  }\n}\n",
  "sourcePath": "/home/user/sandbox/geobache/contracts/GeoBache.sol",
  "compiler": {
    "name": "solc",
    "version": "0.5.16+commit.9c3226ce.Emscripten.clang"
  },
  "schemaVersion": "3.2.0",
  "updatedAt": "2020-10-23T17:19:53.971Z",
  "networkType": "ethereum",
  "devdoc": {
    "methods": {}
  },
  "userdoc": {
    "methods": {}
  }
}