{
  "contractName": "GeoBache",
  "abi": [
    {
      "constant": true,
      "inputs": [
        {
          "internalType": "uint256",
          "name": "",
          "type": "uint256"
        }
      ],
      "name": "caches",
      "outputs": [
        {
          "internalType": "uint8",
          "name": "lat",
          "type": "uint8"
        },
        {
          "internalType": "uint8",
          "name": "long",
          "type": "uint8"
        }
      ],
      "payable": false,
      "stateMutability": "view",
      "type": "function"
    },
    {
      "constant": true,
      "inputs": [],
      "name": "owner",
      "outputs": [
        {
          "internalType": "address",
          "name": "",
          "type": "address"
        }
      ],
      "payable": false,
      "stateMutability": "view",
      "type": "function"
    },
    {
      "constant": false,
      "inputs": [
        {
          "internalType": "uint8",
          "name": "lat",
          "type": "uint8"
        },
        {
          "internalType": "uint8",
          "name": "long",
          "type": "uint8"
        }
      ],
      "name": "register",
      "outputs": [],
      "payable": false,
      "stateMutability": "nonpayable",
      "type": "function"
    },
    {
      "constant": true,
      "inputs": [
        {
          "internalType": "uint256",
          "name": "index",
          "type": "uint256"
        }
      ],
      "name": "lookUp",
      "outputs": [
        {
          "components": [
            {
              "internalType": "uint8",
              "name": "lat",
              "type": "uint8"
            },
            {
              "internalType": "uint8",
              "name": "long",
              "type": "uint8"
            }
          ],
          "internalType": "struct GeoBache.Coords",
          "name": "coordinates",
          "type": "tuple"
        }
      ],
      "payable": false,
      "stateMutability": "view",
      "type": "function"
    }
  ],
  "bytecode": "0x6080604052336000806101000a81548173ffffffffffffffffffffffffffffffffffffffff021916908373ffffffffffffffffffffffffffffffffffffffff16021790555034801561005057600080fd5b50610686806100606000396000f3fe608060405234801561001057600080fd5b506004361061004c5760003560e01c806317a4282b146100515780637951eea8146100825780638da5cb5b1461009e578063eedf6010146100bc575b600080fd5b61006b60048036036100669190810190610415565b6100ec565b604051610079929190610592565b60405180910390f35b61009c6004803603610097919081019061043e565b61012a565b005b6100a66102b0565b6040516100b3919061053c565b60405180910390f35b6100d660048036036100d19190810190610415565b6102d5565b6040516100e39190610577565b60405180910390f35b60016020528060005260406000206000915090508060000160009054906101000a900460ff16908060000160019054906101000a900460ff16905082565b6000809054906101000a900473ffffffffffffffffffffffffffffffffffffffff1673ffffffffffffffffffffffffffffffffffffffff163373ffffffffffffffffffffffffffffffffffffffff16146101b9576040517f08c379a00000000000000000000000000000000000000000000000000000000081526004016101b090610557565b60405180910390fd5b6101c16103cb565b60405180604001604052808460ff1681526020018360ff16815250905060028190806001815401808255809150509060018203906000526020600020016000909192909190915060008201518160000160006101000a81548160ff021916908360ff16021790555060208201518160000160016101000a81548160ff021916908360ff1602179055505050508060016000600280549050815260200190815260200160002060008201518160000160006101000a81548160ff021916908360ff16021790555060208201518160000160016101000a81548160ff021916908360ff160217905550905050505050565b6000809054906101000a900473ffffffffffffffffffffffffffffffffffffffff1681565b6102dd6103cb565b6000809054906101000a900473ffffffffffffffffffffffffffffffffffffffff1673ffffffffffffffffffffffffffffffffffffffff163373ffffffffffffffffffffffffffffffffffffffff161461036c576040517f08c379a000000000000000000000000000000000000000000000000000000000815260040161036390610557565b60405180910390fd5b600160008381526020019081526020016000206040518060400160405290816000820160009054906101000a900460ff1660ff1660ff1681526020016000820160019054906101000a900460ff1660ff1660ff16815250509050919050565b6040518060400160405280600060ff168152602001600060ff1681525090565b6000813590506103fa81610615565b92915050565b60008135905061040f8161062c565b92915050565b60006020828403121561042757600080fd5b6000610435848285016103eb565b91505092915050565b6000806040838503121561045157600080fd5b600061045f85828601610400565b925050602061047085828601610400565b9150509250929050565b610483816105cc565b82525050565b60006104966033836105bb565b91507f546869732066756e6374696f6e206973207265737472696374656420746f207460008301527f686520636f6e74726163742773206f776e6572000000000000000000000000006020830152604082019050919050565b604082016000820151610505600085018261051e565b506020820151610518602085018261051e565b50505050565b61052781610608565b82525050565b61053681610608565b82525050565b6000602082019050610551600083018461047a565b92915050565b6000602082019050818103600083015261057081610489565b9050919050565b600060408201905061058c60008301846104ef565b92915050565b60006040820190506105a7600083018561052d565b6105b4602083018461052d565b9392505050565b600082825260208201905092915050565b60006105d7826105de565b9050919050565b600073ffffffffffffffffffffffffffffffffffffffff82169050919050565b6000819050919050565b600060ff82169050919050565b61061e816105fe565b811461062957600080fd5b50565b61063581610608565b811461064057600080fd5b5056fea365627a7a72315820bfebd17bc08b7fa6598574770eb8405470a30cd4f7acd2d6aa0b9a971393b3796c6578706572696d656e74616cf564736f6c63430005100040",
  "source": "// SPDX-License-Identifier: MIT\npragma solidity >=0.4.22 <0.8.0;\npragma experimental ABIEncoderV2;\n\ncontract GeoBache {\n  address public owner = msg.sender;\n  struct Coords {\n      uint8 lat;\n      uint8 long;\n  }\n  mapping(uint => Coords) public caches;\n  Coords[] coordinateList;\n\n  modifier restricted() {\n    require(\n      msg.sender == owner,\n      \"This function is restricted to the contract's owner\"\n    );\n    _;\n  }\n\n  function register(uint8 lat, uint8 long) public restricted {\n    Coords memory newCoords = Coords(lat, long);\n    coordinateList.push(newCoords);\n    caches[coordinateList.length] = newCoords;\n  }\n\n  function lookUp(uint index) public view restricted returns(Coords memory coordinates) {\n    return caches[index];\n  }\n}\n",
  "sourcePath": "/home/user/sandbox/geobache/contracts/GeoBache.sol",
  "compiler": {
    "name": "solc",
    "version": "0.5.16+commit.9c3226ce.Emscripten.clang"
  },
  "schemaVersion": "3.2.0",
  "updatedAt": "2020-10-23T14:15:01.814Z",
  "devdoc": {
    "methods": {}
  },
  "userdoc": {
    "methods": {}
  }
}